{
  "_format": "hh-sol-artifact-1",
  "contractName": "Transactions",
  "sourceName": "contracts/Transactions.sol",
  "abi": [
    {
      "anonymous": false,
      "inputs": [
        {
          "indexed": false,
          "internalType": "address",
          "name": "from",
          "type": "address"
        },
        {
          "indexed": false,
          "internalType": "address",
          "name": "receiver",
          "type": "address"
        },
        {
          "indexed": false,
          "internalType": "uint256",
          "name": "amount",
          "type": "uint256"
        },
        {
          "indexed": false,
          "internalType": "string",
          "name": "message",
          "type": "string"
        },
        {
          "indexed": false,
          "internalType": "uint256",
          "name": "timestamp",
          "type": "uint256"
        },
        {
          "indexed": false,
          "internalType": "string",
          "name": "keyword",
          "type": "string"
        }
      ],
      "name": "Transfer",
      "type": "event"
    },
    {
      "inputs": [
        {
          "internalType": "address payable",
          "name": "receiver",
          "type": "address"
        },
        {
          "internalType": "uint256",
          "name": "amount",
          "type": "uint256"
        },
        {
          "internalType": "string",
          "name": "message",
          "type": "string"
        },
        {
          "internalType": "string",
          "name": "keyword",
          "type": "string"
        }
      ],
      "name": "addToBlockchain",
      "outputs": [],
      "stateMutability": "nonpayable",
      "type": "function"
    },
    {
      "inputs": [],
      "name": "getAllTransactions",
      "outputs": [
        {
          "components": [
            {
              "internalType": "address",
              "name": "sender",
              "type": "address"
            },
            {
              "internalType": "address",
              "name": "receiver",
              "type": "address"
            },
            {
              "internalType": "uint256",
              "name": "amount",
              "type": "uint256"
            },
            {
              "internalType": "string",
              "name": "message",
              "type": "string"
            },
            {
              "internalType": "uint256",
              "name": "timestamp",
              "type": "uint256"
            },
            {
              "internalType": "string",
              "name": "keyword",
              "type": "string"
            }
          ],
          "internalType": "struct Transactions.TransferStruct[]",
          "name": "",
          "type": "tuple[]"
        }
      ],
      "stateMutability": "view",
      "type": "function"
    },
    {
      "inputs": [],
      "name": "getTransactionCount",
      "outputs": [
        {
          "internalType": "uint256",
          "name": "",
          "type": "uint256"
        }
      ],
      "stateMutability": "view",
      "type": "function"
    },
    {
      "inputs": [],
      "name": "getUserTransactions",
      "outputs": [
        {
          "components": [
            {
              "internalType": "address",
              "name": "sender",
              "type": "address"
            },
            {
              "internalType": "address",
              "name": "receiver",
              "type": "address"
            },
            {
              "internalType": "uint256",
              "name": "amount",
              "type": "uint256"
            },
            {
              "internalType": "string",
              "name": "message",
              "type": "string"
            },
            {
              "internalType": "uint256",
              "name": "timestamp",
              "type": "uint256"
            },
            {
              "internalType": "string",
              "name": "keyword",
              "type": "string"
            }
          ],
          "internalType": "struct Transactions.TransferStruct[]",
          "name": "",
          "type": "tuple[]"
        }
      ],
      "stateMutability": "view",
      "type": "function"
    }
  ],
  "bytecode": "0x608060405234801561001057600080fd5b506112a6806100206000396000f3fe608060405234801561001057600080fd5b506004361061004c5760003560e01c806327506f53146100515780632e7700f01461006f5780636fe691dc1461008d578063cc2d7ead146100ab575b600080fd5b6100596100c7565b6040516100669190610f09565b60405180910390f35b61007761030a565b6040516100849190610f2b565b60405180910390f35b610095610313565b6040516100a29190610f09565b60405180910390f35b6100c560048036038101906100c09190610c31565b6108d8565b005b60606001805480602002602001604051908101604052809291908181526020016000905b8282101561030157838290600052602060002090600602016040518060c00160405290816000820160009054906101000a900473ffffffffffffffffffffffffffffffffffffffff1673ffffffffffffffffffffffffffffffffffffffff1673ffffffffffffffffffffffffffffffffffffffff1681526020016001820160009054906101000a900473ffffffffffffffffffffffffffffffffffffffff1673ffffffffffffffffffffffffffffffffffffffff1673ffffffffffffffffffffffffffffffffffffffff168152602001600282015481526020016003820180546101d490611129565b80601f016020809104026020016040519081016040528092919081815260200182805461020090611129565b801561024d5780601f106102225761010080835404028352916020019161024d565b820191906000526020600020905b81548152906001019060200180831161023057829003601f168201915b505050505081526020016004820154815260200160058201805461027090611129565b80601f016020809104026020016040519081016040528092919081815260200182805461029c90611129565b80156102e95780601f106102be576101008083540402835291602001916102e9565b820191906000526020600020905b8154815290600101906020018083116102cc57829003601f168201915b505050505081525050815260200190600101906100eb565b50505050905090565b60008054905090565b6060600061031f61030a565b90506000808267ffffffffffffffff811115610364577f4e487b7100000000000000000000000000000000000000000000000000000000600052604160045260246000fd5b60405190808252806020026020018201604052801561039d57816020015b61038a610a9a565b8152602001906001900390816103825790505b50905060005b838110156108ce57600181815481106103e5577f4e487b7100000000000000000000000000000000000000000000000000000000600052603260045260246000fd5b906000526020600020906006020160000160009054906101000a900473ffffffffffffffffffffffffffffffffffffffff1673ffffffffffffffffffffffffffffffffffffffff163373ffffffffffffffffffffffffffffffffffffffff161480156104e8575060018181548110610486577f4e487b7100000000000000000000000000000000000000000000000000000000600052603260045260246000fd5b906000526020600020906006020160010160009054906101000a900473ffffffffffffffffffffffffffffffffffffffff1673ffffffffffffffffffffffffffffffffffffffff163373ffffffffffffffffffffffffffffffffffffffff1614155b8061062c575060018181548110610528577f4e487b7100000000000000000000000000000000000000000000000000000000600052603260045260246000fd5b906000526020600020906006020160000160009054906101000a900473ffffffffffffffffffffffffffffffffffffffff1673ffffffffffffffffffffffffffffffffffffffff163373ffffffffffffffffffffffffffffffffffffffff161415801561062b5750600181815481106105ca577f4e487b7100000000000000000000000000000000000000000000000000000000600052603260045260246000fd5b906000526020600020906006020160010160009054906101000a900473ffffffffffffffffffffffffffffffffffffffff1673ffffffffffffffffffffffffffffffffffffffff163373ffffffffffffffffffffffffffffffffffffffff16145b5b156108bb576001818154811061066b577f4e487b7100000000000000000000000000000000000000000000000000000000600052603260045260246000fd5b90600052602060002090600602016040518060c00160405290816000820160009054906101000a900473ffffffffffffffffffffffffffffffffffffffff1673ffffffffffffffffffffffffffffffffffffffff1673ffffffffffffffffffffffffffffffffffffffff1681526020016001820160009054906101000a900473ffffffffffffffffffffffffffffffffffffffff1673ffffffffffffffffffffffffffffffffffffffff1673ffffffffffffffffffffffffffffffffffffffff1681526020016002820154815260200160038201805461074a90611129565b80601f016020809104026020016040519081016040528092919081815260200182805461077690611129565b80156107c35780601f10610798576101008083540402835291602001916107c3565b820191906000526020600020905b8154815290600101906020018083116107a657829003601f168201915b50505050508152602001600482015481526020016005820180546107e690611129565b80601f016020809104026020016040519081016040528092919081815260200182805461081290611129565b801561085f5780601f106108345761010080835404028352916020019161085f565b820191906000526020600020905b81548152906001019060200180831161084257829003601f168201915b5050505050815250508284815181106108a1577f4e487b7100000000000000000000000000000000000000000000000000000000600052603260045260246000fd5b602002602001018190525082806108b79061115b565b9350505b80806108c69061115b565b9150506103a3565b5080935050505090565b60016000808282546108ea919061100d565b9250508190555060016040518060c001604052803373ffffffffffffffffffffffffffffffffffffffff1681526020018673ffffffffffffffffffffffffffffffffffffffff16815260200185815260200184815260200142815260200183815250908060018154018082558091505060019003906000526020600020906006020160009091909190915060008201518160000160006101000a81548173ffffffffffffffffffffffffffffffffffffffff021916908373ffffffffffffffffffffffffffffffffffffffff16021790555060208201518160010160006101000a81548173ffffffffffffffffffffffffffffffffffffffff021916908373ffffffffffffffffffffffffffffffffffffffff160217905550604082015181600201556060820151816003019080519060200190610a29929190610afc565b506080820151816004015560a0820151816005019080519060200190610a50929190610afc565b5050507f416cfa4330a4565f45c2fd2dd4826a83a37443aba2ce6f79477c7355afac35fa338585854286604051610a8c96959493929190610e9a565b60405180910390a150505050565b6040518060c00160405280600073ffffffffffffffffffffffffffffffffffffffff168152602001600073ffffffffffffffffffffffffffffffffffffffff168152602001600081526020016060815260200160008152602001606081525090565b828054610b0890611129565b90600052602060002090601f016020900481019282610b2a5760008555610b71565b82601f10610b4357805160ff1916838001178555610b71565b82800160010185558215610b71579182015b82811115610b70578251825591602001919060010190610b55565b5b509050610b7e9190610b82565b5090565b5b80821115610b9b576000816000905550600101610b83565b5090565b6000610bb2610bad84610f77565b610f46565b905082815260208101848484011115610bca57600080fd5b610bd58482856110e7565b509392505050565b600081359050610bec81611242565b92915050565b600082601f830112610c0357600080fd5b8135610c13848260208601610b9f565b91505092915050565b600081359050610c2b81611259565b92915050565b60008060008060808587031215610c4757600080fd5b6000610c5587828801610bdd565b9450506020610c6687828801610c1c565b935050604085013567ffffffffffffffff811115610c8357600080fd5b610c8f87828801610bf2565b925050606085013567ffffffffffffffff811115610cac57600080fd5b610cb887828801610bf2565b91505092959194509250565b6000610cd08383610dec565b905092915050565b610ce1816110b1565b82525050565b610cf081611063565b82525050565b610cff81611063565b82525050565b6000610d1082610fb7565b610d1a8185610fda565b935083602082028501610d2c85610fa7565b8060005b85811015610d685784840389528151610d498582610cc4565b9450610d5483610fcd565b925060208a01995050600181019050610d30565b50829750879550505050505092915050565b6000610d8582610fc2565b610d8f8185610feb565b9350610d9f8185602086016110f6565b610da881611231565b840191505092915050565b6000610dbe82610fc2565b610dc88185610ffc565b9350610dd88185602086016110f6565b610de181611231565b840191505092915050565b600060c083016000830151610e046000860182610ce7565b506020830151610e176020860182610ce7565b506040830151610e2a6040860182610e7c565b5060608301518482036060860152610e428282610d7a565b9150506080830151610e576080860182610e7c565b5060a083015184820360a0860152610e6f8282610d7a565b9150508091505092915050565b610e85816110a7565b82525050565b610e94816110a7565b82525050565b600060c082019050610eaf6000830189610cf6565b610ebc6020830188610cd8565b610ec96040830187610e8b565b8181036060830152610edb8186610db3565b9050610eea6080830185610e8b565b81810360a0830152610efc8184610db3565b9050979650505050505050565b60006020820190508181036000830152610f238184610d05565b905092915050565b6000602082019050610f406000830184610e8b565b92915050565b6000604051905081810181811067ffffffffffffffff82111715610f6d57610f6c611202565b5b8060405250919050565b600067ffffffffffffffff821115610f9257610f91611202565b5b601f19601f8301169050602081019050919050565b6000819050602082019050919050565b600081519050919050565b600081519050919050565b6000602082019050919050565b600082825260208201905092915050565b600082825260208201905092915050565b600082825260208201905092915050565b6000611018826110a7565b9150611023836110a7565b9250827fffffffffffffffffffffffffffffffffffffffffffffffffffffffffffffffff03821115611058576110576111a4565b5b828201905092915050565b600061106e82611087565b9050919050565b600061108082611087565b9050919050565b600073ffffffffffffffffffffffffffffffffffffffff82169050919050565b6000819050919050565b60006110bc826110c3565b9050919050565b60006110ce826110d5565b9050919050565b60006110e082611087565b9050919050565b82818337600083830152505050565b60005b838110156111145780820151818401526020810190506110f9565b83811115611123576000848401525b50505050565b6000600282049050600182168061114157607f821691505b60208210811415611155576111546111d3565b5b50919050565b6000611166826110a7565b91507fffffffffffffffffffffffffffffffffffffffffffffffffffffffffffffffff821415611199576111986111a4565b5b600182019050919050565b7f4e487b7100000000000000000000000000000000000000000000000000000000600052601160045260246000fd5b7f4e487b7100000000000000000000000000000000000000000000000000000000600052602260045260246000fd5b7f4e487b7100000000000000000000000000000000000000000000000000000000600052604160045260246000fd5b6000601f19601f8301169050919050565b61124b81611075565b811461125657600080fd5b50565b611262816110a7565b811461126d57600080fd5b5056fea264697066735822122045e6c151f7c6b90db77835b4281685089fd92ff5a2b825d75b2aa2b0a2eff9fe64736f6c63430008000033",
  "linkReferences": {},
  "deployedLinkReferences": {}
}